:020000040800F2
:100000000050002021020008270200082B020008EF
:100010009D020008A1020008E9020008000000009B
:100020000000000000000000000000003103000894
:10003000350300080000000039030008AD12000875
:100040004D0300084D0300084D0300084D03000850
:100050004D0300084D0300084D0300084D03000840
:100060004D0300084D0300084D0300084D03000830
:100070004D0300084D0300084D0300084D03000820
:100080004D0300084D0300084D0300084D03000810
:100090004D0300084D0300084D0300084D03000800
:1000A0004D0300084D0300084D0300084D030008F0
:1000B0004D0300084D0300084D0300084D030008E0
:1000C0004D0300084D0300084D0300084D030008D0
:1000D0004D0300084D0300084D0300084D030008C0
:1000E0004D0300084D0300084D0300080000000008
:1000F0000000000000000000000000000000000000
:1001000000000000000000005FF808F100B583B0B7
:1001100000F0AAF9304B314A1360314A1360314B79
:10012000314A32498B4204D21168196004330432D7
:10013000F7E72A4B1A682E4B9A4200D0FEE7284B6D
:100140001A682C4B9A42F9D1234B2B4A13602B4A45
:1001500013602B4B02E000221A600433294A9342B9
:10016000F9D3254B1B6813B9244B1B6803B1FEE779
:1001700000F086F9694601A800F022F9224C234BD1
:10018000E41AA4100025AC4214DC214C214BE41AE3
:10019000A4100025AC4213DC0099019801F0CEFABE
:1001A00005461D4C1D4BE41AA410002C0EDC2846FD
:1001B00000F0E2F8154B53F8253098470135E2E797
:1001C000144B53F8253098470135E3E7013C134BB6
:1001D00053F824309847E8E7BABADECA0000002096
:1001E000D400002000000020D8220008D800002001
:1001F0007856341232547698D80000200C1500201E
:10020000D8000020101500207803000878030008AB
:1002100078030008780300087803000878030008D2
:1002200008B5FFF773FF00BEFEE71EF0040F0CBF1A
:10023000EFF30880EFF309807146414A10472DE93A
:10024000F04182B004468846124B5E6B9F6B9D6AFC
:100250001B6B13F0020F03D00E4BDB6A002B0CDB81
:100260000D4800F0B5F8CDF800803B4632462946EF
:10027000204600F009F900BEFEE74BF6AB6100F046
:100280007DF90028ECD0034B4FF00042DA6202B057
:10029000BDE8F08100ED00E02C21000800BEFEE783
:1002A0001EF0040F0CBFEFF30880EFF309807146D6
:1002B000244A10472DE9F04182B004468846084B95
:1002C0005E6B9F6B9D6A074800F082F8CDF8008056
:1002D0003B4632462946204600F0D6F800BEFEE7EF
:1002E00000ED00E03C2100081EF0040F0CBFEFF30E
:1002F0000880EFF309807146134A10472DE9F04159
:1003000082B004468846084B5E6B9F6B9D6A074827
:1003100000F05EF8CDF800803B4632462946204684
:1003200000F0B2F800BEFEE700ED00E04821000852
:1003300000BEFEE700BEFEE700BEFEE7704700001D
:100340003F020008B5020008FD02000800BEFEE7FB
:10035000D822000800000020D8000020D822000881
:100360000000000000000000D80000201015002050
:08037000000000000000000085
:10037800FEE7000008B503460C4A12685AB10B4A5A
:100388001068033323F003030344094A934206D851
:10039800064A136008BD054A06491160EFE701F0F7
:1003A800D3F90C2303604FF0FF30F3E7DC000020A3
:1003B800004C00201015002001230360014B0B6046
:1003C800704700BF040000200FB400B583B004AB31
:1003D80053F8042B01938021064801F017FA0028EE
:1003E80003DD0146034800F037F803B05DF804EB7D
:1003F80004B07047E40000202DE9F04385B00446BE
:100408000F4643560BB10E461EE0042528462146EA
:10041800ABBE0446384605B0BDE8F08314F9011BAD
:1004280004AA1A4402F8101C0133AB42F6D304AAFA
:100438001344002203F8102C4FF00408E946404604
:100448004946ABBE8046761B002EE3D03546102EBB
:1004580028BF10250023E8E708B5FFF7CDFF08BD42
:1004680008B500F0FDF8024A024B9A6008BD00BFCB
:100478000000000800ED00E008B500F019F908BD1B
:10048800F8B504460D4617461E462748FFF79CFF59
:1004980021682648FFF798FF61682548FFF794FF11
:1004A800A1682448FFF790FFE1682348FFF78CFF15
:1004B80021692248FFF788FF61692148FFF784FF17
:1004C800A1692048FFF780FFE1691F48FFF77CFF1B
:1004D8001E48FFF779FF29461D48FFF775FF1D4C99
:1004E800E16A1D48FFF770FF216B1C48FFF76CFF9E
:1004F800E16B1B48FFF768FF15F0800F0AD115F470
:10050800004F0CD11748FFF75FFF06991648FFF711
:100518005BFFF8BD39461548FFF756FFEFE7314650
:100528001348FFF751FFEDE71020000820200008CE
:1005380030200008402000085020000860200008F3
:10054800702000088020000890200008A0200008E3
:10055800AC20000800ED00E0BC200008CC2000081A
:10056800DC2000080C21000814210008EC200008F9
:10057800FC20000883691A888A4201D0002070474D
:100588000268033A012A03D80233836101207047C5
:100598000020704782B00023019300932C4A13680F
:1005A80043F4803313602A4B1B6803F40033009331
:1005B800019B01330193009B1BB9019BB3F5A06F0D
:1005C800F1D1234B1B6813F4003F06D0012300939D
:1005D800009B012B04D002B0704700230093F7E77B
:1005E8001C4B1A6842F010021A601A6822F00302C3
:1005F8001A601A6842F002021A60A3F580535A681A
:100608005A605A685A605A6842F480625A605A6856
:1006180022F47C125A605A6842F4E8125A601A6846
:1006280042F080721A600A4B1B6813F0007FFAD000
:10063800074B5A6822F003025A605A6842F00202D5
:100648005A60034B5B6803F00C03082BF9D1C2E72F
:10065800001002400020024008B5FFF79BFF08BDCC
:1006680008B5104B1A6842F001021A6059680E4A20
:100678000A405A601A6822F0847222F480321A60A2
:100688001A6822F480221A605A6822F4FE025A601C
:100698004FF41F029A60FFF7DFFF044B4FF0006230
:1006A8009A6008BD001002400000FFF800ED00E06D
:1006B8001F4B5B6803F00C03042B15D0082B17D0D5
:1006C8001BB11C4B1C4A1A6002E01A4B1A4A1A60EA
:1006D800174B5B68C3F30313184AD35CDAB21549A6
:1006E8000B68D3400B607047124B134A1A60EFE750
:1006F8000F4A53685268C3F38343023312F4803FAE
:100708000AD00B4A526812F4003F0BD00C4A02FB85
:1007180003F3084A1360DBE7094A02FB03F3054ABF
:100728001360D5E7044A02FB03F3024A1360CFE7DC
:10073800001002401C00002000127A000C0000206B
:1007480000093D000FB404B0704700002DE9F041E6
:100758009AB004460D466422002101A800F0FAFF71
:1007680035B1284B1B88284AD35CB3B100223CE042
:10077800254D41F288320021284600F0EBFF234A3C
:100788002349244800F054FA2A463A21224800F026
:10079800C1FA1C4B00221A80E8E7154641F288325C
:1007A8000021284600F0D6FFDFF86080184F194E68
:1007B80042463946304600F03BFA01A9174800F096
:1007C8005FFA42463946304600F032FA2A463A2164
:1007D800114800F09FFA0B4B00221A80C6E7A1547B
:1007E800013308490B80013292B2064B1B88064937
:1007F800C95C0A29F3D10133024A13801AB0BDE853
:10080800F08100BF64010020680100205821000821
:100818005C2100086C21000870210008A021000854
:10082800F0B5B3B06424224600210DEB040000F0BB
:1008380091FF22460021684600F08CFF092404E05D
:10084800E0B200F0D1FA0134A4B2372CF8D9012172
:10085800002000F061FB2AE004F10B0332AA1344E4
:1008680013F8643C8DF8003004F10C03134413F8BA
:10087800643C8DF8013004F10903134413F8643C17
:100888008DF8023004F10A03134413F8643C8DF820
:100898000330684600F0F3FE0146781900F0D2FAFA
:1008A8000434A4B20235ADB2B3B2AB42D4D80121FC
:1008B80019A8FFF74BFF9DF864303A2B01D00D2B98
:1008C800F5D19DF865309DF8666006EB0316F6B223
:1008D800303E16F0FF0616D09DF867308DF80030D0
:1008E8009DF868308DF801309DF869308DF8023038
:1008F8009DF86A308DF80330684600F0C0FE07B2F4
:1009080000242546D0E70021084600F005FB33B057
:10091800F0BD000010B50E48FFF714FF0D4B1C6822
:1009280014F0005F10D021460B48FFF70BFF84F34B
:1009380008880A4B1C6821460948FFF703FF094B42
:10094800044A9A60A04710BD0748FFF7FBFEFAE784
:10095800D421000800240008082200080424000804
:100968002422000800ED00E0E82100080378022BAB
:100978001CD80BB10020704710B586B004466846F5
:1009880000F092FD6378012B07D0022B0CD0032BCB
:1009980001D0002002E0064800E00648694600F061
:1009A800D0FD012006B010BD0348F7E700207047CE
:1009B8000048004000380140004400400378022B02
:1009C8001ED8FBB970B50E46054600240DE00F4849
:1009D80000E00F48E9686A69214400F01DFEEB68F1
:1009E8001B5DB34210D00134A4B26B78012BF0D058
:1009F800022B03D0032BEAD00020EBE70548E9E7F8
:100A08000020704700207047012070BD004800405A
:100A180000380140004400402DE9F04182B0002335
:100A28008DF807300378022B3ED8002B40D1904632
:100A38000F460546002426460DE01E4800E01E48E5
:100A48006A690DF1070100F0E7FD9DF80730BB4228
:100A580026D0013424B256B96B78012BEFD0022B83
:100A680003D0032BE9D00020EAE71448E8E76B78C5
:100A7800012B07D0022B11D0032B01D0002002E05C
:100A88000C4800E00C48E9686A69214400F0C4FD9C
:100A9800EB681B5D4345DCD1012006E00748F2E71F
:100AA8004FF0FF340126D4E7002002B0BDE8F08102
:100AB8000020FAE7004800400038014000440040A8
:100AC8000378022B1ED8FBB970B50E4605460024E4
:100AD8000DE00F4800E00F486B686A69195D00F087
:100AE80089FD6B681B5DB34210D00134A4B26B78EA
:100AF800012BF0D0022B03D0032BEAD00020EBE728
:100B08000548E9E70020704700207047012070BDC4
:100B1800004800400038014000440040F8B5037820
:100B2800022B24D82BBB14460F460646002515E099
:100B3800124800E0124873687269595D00F05AFD66
:100B480073685B5DBB4216D0002303E00D48F2E7F3
:100B580000BF0133A342FBD30135ADB27378012B3B
:100B6800E8D0022BF2D0032BE2D00020E3E70020EC
:100B7800F8BD0020FCE70120FAE700BF004800406C
:100B8800003801400044004008B5034B58600A2172
:100B98001846FFF795FF08BD2000002070B5CCB0BF
:100BA800064601AD4FF496720021284600F0D2FDAA
:100BB800074CE56000212046FFF700FF2946304634
:100BC80000F040FD42F2107363614CB070BD00BF8D
:100BD8002000002008B5044B58600A460A21184630
:100BE800FFF79CFF08BD00BF2000002008B50C4897
:100BF800FFF7BCFE002005E00A48FFF7C5FF0A48DA
:100C0800FFF7CCFF0128F7D1002005E00748FFF7E0
:100C1800BBFF0548FFF7C2FF0128F7D108BD00BF99
:100C280020000020642200086C22000870220008BE
:100C380070B59CB004460D4616466422002103A8F0
:100C480000F088FD0A4B0B4A5A6100962B46224653
:100C5800094903A800F086FD002005E003A8FFF776
:100C680093FF0648FFF79AFF0128F7D11CB070BD23
:100C780020000020400D0300802200089C2200086C
:100C880070B5BAB005460E461E22002132A800F003
:100C980061FDC8220021684600F05CFD184CE66042
:100CA800184B63612A461849684600F05BFD6846A0
:100CB80000F078FD82B2154932A800F053FD0025F6
:100CC80065614FF47A7132A8FFF784FF4FF47A71A7
:100CD800142000F0CFFA4FF47A716846FFF77AFFD4
:100CE8000B4B636129462046FFF768FE04464FF424
:100CF8007A71142000F0BEFA20463AB070BD00BFE9
:100D08002000002020A107004822000854220008E3
:100D1800400D0300F0B5BBB005460E4617461E222F
:100D2800002132A800F016FDC8220021684600F014
:100D380011FD194CE760194B63612A46184968464A
:100D480000F010FD684600F02DFD82B2154932A86A
:100D580000F008FD002565614FF47A7132A8FFF7AD
:100D680039FF4FF47A71142000F084FA4FF47A7145
:100D78006846FFF72FFF0C4B63612A463146204631
:100D8800FFF74AFE04464FF47A71142000F072FA15
:100D980020463BB0F0BD00BF2000002020A1070086
:100DA8004822000854220008400D0300054B1B6927
:100DB80013F0800F05D0034B034A5A6002F18832C2
:100DC8005A6070470020024023016745054B1B69A4
:100DD80013F0800F04D1034A136943F080031361B1
:100DE800704700BF002002403F2827D810B5144B99
:100DF800DB6813F0010FFAD10446FFF7D7FF104B59
:100E08001A6942F002021A6104F500308002586142
:100E18001A6942F040021A61094BDB6813F0010FAE
:100E2800FAD1074BDA6842F02002DA601A6922F038
:100E380002021A61FFF7CAFF012010BD00207047A7
:100E48000020024038B504460D460F4BDB6813F00E
:100E5800010FFAD1FFF7AAFF0B4A136943F0010308
:100E680013612580084BDB6813F0010FFAD1064B9C
:100E7800DA6842F02002DA601A6922F001021A6187
:100E8800FFF7A4FF012038BD002002400F291FD81A
:100E980010B407290FD90839C9B2436889000F244B
:100EA8008C4023EA04034360436802FA01F11943C2
:100EB800416010BC7047036889000F248C4023EA06
:100EC80004030360036802FA01F119430160F0E7C3
:100ED800704708B50A790978FFF7D8FF08BD0F29C8
:100EE80000D9704700B585B00B46029204A901F8F5
:100EF8000C3DFFF7EEFF05B05DF804FB0F2905D8A0
:100F0800012A04D0012303FA01F14161704701234A
:100F180003FA01F10161704708B10020704708B574
:100F280003460A46044800EBC301097950F8330028
:100F3800FFF7E4FF012008BD38000020304B5A6855
:100F480022F001025A605A6822F002025A6001280F
:100F58002AD0A8B102283FD0294A136843F00103D8
:100F68001360274B1B6813F0020FFAD0244B5A6802
:100F780022F001025A605A6822F002025A60704751
:100F88001F4A136843F0010313601D4B1B6813F0DD
:100F9800020FFAD01A4B5A6822F001025A605A68B6
:100FA80022F002025A607047154B1A6842F48032E8
:100FB8001A601A6822F480221A60114B1B6813F415
:100FC800003FFAD00E4B5A6842F001025A605A6844
:100FD80022F002025A607047094A136843F080738E
:100FE8001360074B1B6813F0007FFAD0044B5A6854
:100FF80022F001025A605A6842F002025A607047B1
:10100800001002402D4B5A6822F400325A605A6888
:1010180022F480325A60012826D060B102283CD0E0
:10102800264A136843F001031360244B1B6813F02E
:10103800020FFAD07047214A136843F480331360D3
:101048001E4B1B6813F4003FFAD01C4B5A6822F45D
:1010580000325A605A6842F480325A60174B1B6853
:1010680013F4003FFAD07047144A136843F48033EE
:101078001360124B1B6813F4003FFAD00F4B5A68E9
:1010880042F400325A605A6842F480325A600B4B7C
:101098001B6813F4003FFAD07047084A136843F0FE
:1010A80001031360054B1B6813F0020FFAD0034AC3
:1010B800536823F480335360704700BF0010024028
:1010C800024A536843EA804050607047001002406B
:1010D8000246A8B101790B4B196041790A4B196096
:1010E800C0780A4B596841EA00115960596810796B
:1010F80041EA002159605968527941EAC2225A608E
:10110800704700BFF0140020F414002000100240C3
:1011180090B110B504460078FFF710FF2378022B32
:1011280003D02046FFF7D4FF10BD6078FFF76AFFB1
:10113800A078FFF7C5FFF4E7704700001F2933D8F0
:10114800012815D010B1022824D07047012A08D0F0
:1011580019484369012202FA01F123EA01014161B8
:1011680070471548436902FA01F119434161704714
:10117800012A08D01048C369012202FA01F123EAC2
:101188000101C16170470C48C36902FA01F11943B2
:10119800C1617047012A08D007488369012202FA11
:1011A80001F123EA0101816170470348836902FA6A
:1011B80001F119438161704700100240104B1B6810
:1011C800072B19D8DFE803F004181818080C1014B6
:1011D8000C4B0360012070470B4B036001207047E4
:1011E8000A4B036001207047094B036001207047D8
:1011F800084B0360012070470023036018467047BE
:10120800F014002000127A0000093D0080841E00BE
:1012180040420F0020A10700104B1B68072B19D86C
:10122800DFE803F004181818080C10140C4B0360BE
:10123800012070470B4B0360012070470A4B036085
:1012480001207047094B036001207047084B036079
:10125800012070470023036018467047F4140020EB
:1012680000127A0000093D0080841E0040420F00F1
:1012780020A1070001FB00F1094B59601A6842F0F0
:1012880001021A60064B1B6813F4803FFAD0044B26
:101298001A6822F001021A6000225A609A607047A8
:1012A80010E000E008B50B4B1B7813F0010F0BD1D1
:1012B800094B1A6822F002021A601A6822F0010229
:1012C8001A6000225A609A60044B1B689847024BC8
:1012D8001B6808BDF814002010E000E0FC14002092
:1012E80039B101290DD1838943F4805383810120C9
:1012F800704783899BB223F480539BB2838101207A
:1013080070470020704703290CD8038A9BB223F446
:1013180040539BB20382038A090389B219430182AD
:101328000120704700207047012916D019B1022901
:1013380009D00020704783899BB223F480639BB255
:10134800838101207047838943F480638381838983
:1013580043F40073838101207047838943F48063D9
:10136800838183899BB223F400739BB2838101201C
:101378007047032904D8838A9BB28382012070476F
:101388000020704710B5194B984207D0184B984267
:1013980011D0184B98421BD0002010BD164C0A22C1
:1013A80021792068FFF79BFD0422217BA068FFF7C5
:1013B80096FD0120F1E7114C0A2221792068FFF7F8
:1013C8008EFD0422217BA068FFF789FD0120E4E758
:1013D8000B4C0A2221792068FFF781FD0422217B2A
:1013E800A068FFF77CFD0120D7E700BF0038014067
:1013F8000044004000480040400000205000002009
:101408006000002030B583B0002301934A1E214BB1
:101418009A423BD80D4604461F4B984207D01F4BB3
:1014280098420BD01E4B98420CD000202FE001A808
:10143800FFF7F2FE012809D0002028E001A8FFF7F5
:10144800BDFEF7E701A8FFF7B9FEF3E7019B290105
:10145800B3FBF1F2642505FB03F3B3FBF1F1114B88
:10146800A3FB01C35B0905FB13131B0140F20E61CB
:101478008B4201D901320023120192B20949A1FB22
:10148800031342EA53139BB2238100E0002003B008
:1014980030BD00BF1FAA440000380140004400408E
:1014A800004800401F85EB51034660B14FF4E1321C
:1014B800026000224273027302218173027182600A
:1014C8000120D87370470020704719B1012909D04D
:1014D8000020704783899BB223F400539BB2838119
:1014E80001207047838943F40053838101207047AA
:1014F80083899BB223F004039BB2838183899BB2C7
:1015080023F008039BB2838101290AD019B102296B
:101518000DD000207047838943F0080383810120A0
:101528007047838943F004038381012070478389CE
:1015380043F004038381838943F0080383810120F6
:10154800704738B504460D46FFF71CFF012801D047
:10155800002038BD29792046FFF7C2FE012801D0B6
:101568000020F6E7A9682046FFF7CDFE012801D044
:101578000020EEE7A97B2046FFF7BAFF012801D03B
:101588000020E6E729682046FFF73CFF012801D044
:101598000020DEE7297B2046FFF7C6FE012801D0A0
:1015A8000020D6E7697B2046FFF7E3FEE97B20466B
:1015B800FFF78BFFCDE7012915D0802913D04029EB
:1015C80011D020290FD010290DD0B1F5807F0AD075
:1015D800B1F5007F07D0082905D0042903D00229D6
:1015E80001D0002070470388194201D100207047BC
:1015F8000120704770B50546164681800024802179
:101608002846FFF7D8FF034618B90134B442F6D389
:1016180000E00123184670BDF8B505460F4616468A
:10162800002420212846FFF7C6FF034628B90134C5
:10163800B442F6D300223A7002E0AB883B70012333
:101648001846F8BD30B400252A4603E001259DB9A7
:10165800013292B28B5C7BB104789C42F7D10023B3
:10166800C45C002CF2D0D5184D5DA54202D10133DF
:101678009BB2F5E70025EAE7284630BC704730B44E
:101688000546002108464FF480540FE0A3F14102BB
:10169800D2B2052A19D8A3F1370292B202FB04F29A
:1016A80092B2831898B20131C9B224096B5CDBB1DC
:1016B800A3F13002D2B2092AE8D8303B9BB203FB2F
:1016C80004F39BB2034498B2EDE7A3F16102D2B2EE
:1016D800052AE8D8563B9BB203FB04F39BB2013BB7
:1016E8009AB2831898B2DEE730BC704710B582B062
:1016F80000248DF800408DF804408DF805408DF8E1
:1017080003406846FFF704FD012202210846FFF75F
:1017180015FD012203210220FFF710FD01220E21F1
:101728000220FFF70BFD012208212046FFF706FDE6
:1017380002B010BD08B5FFF7D9FFFFF757FAFFF75A
:101748006FF8FFF7E7F8FEE7014B1868704700BF2E
:101758007000002003460244934200D1704703F80A
:10176800011BF9E70EB46FF0004100B59CB01DAB4A
:1017780002900690079104910848094953F8042BF0
:101788000591006802A9019300F0A8F80022029BC5
:101798001A701CB05DF804EB03B0704770000020AD
:1017A8000802FFFF034613F8012B002AFBD1181A81
:1017B8000138704730B5141E05469BB0184605DA47
:1017C8008B234FF0FF302B601BB030BD4FF40273FA
:1017D800ADF80C300CBF234604F1FF330293059398
:1017E8004FF6FF7300910491ADF80E3002461E9B30
:1017F8006946284600F072F8431CBCBF8B232B6057
:10180800002CE1D00022009B1A70DDE707B5009399
:1018180013460A46014603480068FFF7CBFF03B0AA
:101828005DF804FB700000202DE9F0478E688246C1
:101838009E420C469046994637D88A8912F4906F92
:1018480031D00223256809696F1A656905EB4505DA
:1018580095FBF3F509F101033B449D4238BF1D4652
:10186800530530D5294600F035FB064650B90C2300
:101878004FF0FF30CAF80030A38943F04003A3813A
:10188800BDE8F0873A46216900F0B4FAA38923F449
:10189800906343F08003A38126613E4426604E4650
:1018A8006561ED1BA5604E4500D94E46324641465E
:1018B800206800F0AAFAA36800209B1BA360236895
:1018C8001E442660DCE72A4600F05EFB0646002838
:1018D800E2D12169504600F0B1FAC8E72DE9F04F8E
:1018E8009DB003938B8980461D060C4616460FD57E
:1018F8000B696BB9402100F0EDFA2060206128B92E
:101908000C23C8F800304FF0FF30C7E04023636174
:101918000023099320238DF8293030234FF0010B41
:101928008DF82A3037463D4615F8013B0BB1252B7B
:101938003ED1B7EB060A0BD0534632462146404605
:10194800FFF772FF013000F0A480099B534409930C
:101958003B78002B00F09D8000234FF0FF32CDE94B
:101968000523049307938DF853301A932F460522C5
:1019780017F8011B4F4800F02FFA049BD0B9D9067D
:1019880044BF20228DF853201A0744BF2B228DF81C
:1019980053202A782A2A15D02F4600200A25079A8C
:1019A800394611F8013B303B092B4DD9B8B10FE04E
:1019B8002F46B8E73F4A3D46801A0BFA00F0184315
:1019C8000490D3E7039A111D12680391002A01DBE2
:1019D800079204E0524243F00203079204933B78D3
:1019E8002E2B0CD17B782A2B33D1039B02371A1D5F
:1019F8001B680392002BB8BF4FF0FF3305932E4DA1
:101A080003223978284600F0E7F938B14023401B13
:101A180003FA00F0049B0137034304933978062244
:101A280026487E1C8DF8281000F0D6F9002838D0FA
:101A3800234B13BB039B073323F00703083303939C
:101A4800099B4B4409936DE705FB023201200F46C1
:101A5800A6E700230A25194601370593384610F8EA
:101A6800012B303A092A03D9002BC8D00591C6E7C3
:101A780005FB012101230746F0E703AB009322464B
:101A8800104B04A94046AFF30080B0F1FF3F8146F8
:101A9800D6D1A3895B063FF536AF09981DB0BDE8DE
:101AA800F08F03AB00932246064B04A9404600F092
:101AB80081F8EAE7A4220008AA220008AE2200085A
:101AC80000000000311800082DE9F04791461F4634
:101AD8008A680B6906469342B8BF1346C9F80030B6
:101AE80091F843200C46DDF8208012B10133C9F883
:101AF80000302368990642BFD9F800300233C9F88C
:101B08000030256815F0060507D104F1190AE368C5
:101B1800D9F800209B1AAB4229DC94F8433022689C
:101B2800003318BF012392062ED404F1430239462C
:101B38003046C047013021D02368E56803F006032A
:101B4800042B18BF0025D9F800204FF0000908BF62
:101B5800AD1AA368226908BF25EAE5759342C4BF98
:101B68009B1AED181A344D451AD1002008E00123BC
:101B7800524639463046C047013003D14FF0FF3056
:101B8800BDE8F0870135C2E73020E11881F843004D
:101B98005A1C94F845102244023382F84310C4E7D3
:101BA8000123224639463046C0470130E6D009F1C4
:101BB8000109D8E72DE9F04301F1430C0C46097EF1
:101BC80085B06E291746064698460C9A00F0B380F1
:101BD80022D8632936D00AD8002900F0B9805829BC
:101BE80000F0838004F1420584F8421032E0642951
:101BF80001D06929F6D120681368050603F10401AC
:101C08002AD51B681160002B03DA2D225B4284F869
:101C180043206F480A2239E0732900F09D8008D8D4
:101C28006F2920D07029DDD1236843F02003236079
:101C380003E0752917D07829D4D17823654884F82A
:101C4800453055E0136804F14205191D1B68116001
:101C580084F8423001238CE01B6810F0400F1160BB
:101C680018BF1BB2CFE713682568181D1060280637
:101C780001D51B6802E06806FBD51B886F2914BFD5
:101C88000A2208225248002184F843106568002D72
:101C9800A560C0F29580216821F004012160002B25
:101CA8003DD1002D40F08E806546082A0BD123686F
:101CB800DB0708D5236962689A42DEBF302305F83E
:101CC800013C05F1FF35ACEB05032361CDF800803D
:101CD8003B4603AA21463046FFF7F6FE01304DD1B8
:101CE8004FF0FF3005B0BDE8F083394884F845105F
:101CF800136821681D1D1B6815600A060BD5CA07E5
:101D080044BF41F0200121601BB9226822F0200263
:101D180022601022B7E74D0648BF9BB2EFE7654641
:101D2800B3FBF2F102FB1133C35C05F8013D0B462E
:101D38000029F5D1B9E713682568181D6169106095
:101D480028061B6801D5196002E06A06FBD51980D0
:101D5800002365462361B9E71368191D11601D68E2
:101D680062680021284600F037F808B1401B60601F
:101D780063682361002384F84330A7E723692A4670
:101D880039463046C0470130AAD023689B0713D490
:101D9800E068039B9842B8BF1846A3E701234A4668
:101DA80039463046C04701309AD00135E368039A76
:101DB8009B1AAB42F2DCEBE7002504F11909F5E7C1
:101DC800002BACD1037804F1420584F842306CE76B
:101DD800B5220008C622000810B5C9B202449042D4
:101DE800034601D1002303E01C7801308C42F6D170
:101DF800184610BD10B5431E0A44914200D110BDCB
:101E080011F8014B03F8014FF7E7884210B501EBD1
:101E1800020307D8421E99420AD011F8014B02F872
:101E2800014FF8E78342F5D98118D21AD34200D17D
:101E380010BD13F8014D01F8014DF7E738B5054617
:101E4800002943D051F8043C0C1F002BB8BFE418FC
:101E580000F0D0F81E4A1368104633B96360146066
:101E68002846BDE8384000F0C6B8A3420BD921681F
:101E78006218934201BF1A685B6852182260636057
:101E88000460EDE713465A680AB1A242FAD9196804
:101E98005818A0420BD12068014458188242196092
:101EA800DED110685268014419605A60D8E702D937
:101EB8000C232B60D4E7206821188A4201BF1168DF
:101EC80052680918216062605C60C9E738BD00BFCC
:101ED8000015002070B5CD1C25F0030508350C2D24
:101EE80038BF0C25002D064601DBA94203D90C2377
:101EF8003360002070BD00F07DF8214A1468214647
:101F080091B9204C23681BB9304600F063F8206073
:101F18002946304600F05EF8431C24D10C23304695
:101F2800336000F068F8E4E70B685B1B18D40B2BF0
:101F38000FD90B60CC18CD50304600F05CF804F196
:101F48000B00231D20F00700C31AD3D05A42E250D9
:101F5800D0E74B688C4216BF636013600C46EBE712
:101F68000C464968CCE7C41C24F00304A04205D001
:101F7800211A304600F02EF80130CFD02560DBE77B
:101F88000015002004150020F8B5074614460E4633
:101F980021B9BDE8F8401146FFF79CBF22B9FFF709
:101FA8004DFF25462846F8BD00F026F8A0420FD27E
:101FB80021463846FFF78EFF05460028F2D0314605
:101FC8002246FFF717FF31463846FFF737FFE9E7A4
:101FD8003546E7E738B50023054C05460846236033
:101FE800FEF7C8F9431C02D1236803B12B6038BD42
:101FF800081500207047704751F8043C181F002B43
:10200800BCBF0B58C0187047537461636B2066726D
:10201800616D653A0A000000205230203D202025DD
:102028003038580A00000000205231203D20202579
:102038003038580A00000000205232203D20202568
:102048003038580A00000000205233203D20202557
:102058003038580A0000000020523132203D202537
:102068003038580A00000000204C52203D2020251E
:102078003038580A00000000205043203D20202519
:102088003038580A0000000020505352203D2025C7
:102098003038580A000000004653522F4641523A41
:1020A8000A0000002043465352203D2020253038A6
:1020B800580A00002048465352203D202025303839
:1020C800580A00002044465352203D20202530382D
:1020D800580A00002041465352203D202025303820
:1020E800580A0000204D4D464152203D20253038E9
:1020F800580A00002042464152203D202025303811
:10210800580A00004D6973630A000000204C522FE2
:102118004558435F52455455524E3D202530385856
:102128000A0000005B486172644661756C745D0A60
:10213800000000005B4275734661756C745D0A00AF
:102148005B55736167654661756C745D0A000000D4
:10215800383000003136322E3235332E3135352EB7
:102168003232370054435000687474703A2F2F6627
:102178006C6173687561726D2E667265656F6461F6
:102188002E636F6D2F4865784C696E657346696C70
:10219800652E747874000000687474703A2F2F6686
:1021A8006C6173687561726D2E667265656F6461C6
:1021B8002E636F6D2F66696C6548616E646C65533C
:1021C800656E6465722E70687000000053746172E9
:1021D80074207573657220617070200D0A0000000C
:1021E8005573657220415050204D5350206973201B
:1021F8006E6F742076616C6964200D0A000000001F
:102208005573657220415050204D53502076616CB3
:1022180075653A20252378200D0A000055736572EC
:10222800204150502072657365742068616E646C3B
:10223800657220697320252378200D0A00000000AC
:102248004745542025730D0A0000000041542B43D4
:10225800495053454E443D25640D0A0041544530CC
:102268000D0A00004F4B000041542B43574D4F447B
:10227800453D310D0A00000041542B434950535449
:102288004152543D222573222C222573222C25737A
:102298000D0A0000434F4E4E45435400232D302B6A
:1022A8002000686C4C00656667454647003031324F
:1022B80033343536373839414243444546003031A6
:0F22C80032333435363738396162636465660006
:1022D80078563412E00000200000000000000000E2
:1022E80000000000010203040607080900A24A04CE
:1022F80000010000000000000000000000000000D5
:102308000000000010270000000801400000000045
:102318000008014009000000000801400A00000010
:10232800000C01400A000000000C01400B000000F6
:1023380000080140020000000008014003000000FE
:1023480074000020000000000000000000000000F1
:102358000000000000000000000000000000000075
:102368000000000000000000000000000000000065
:102378000000000000000000000000000000000055
:102388000000000000000000000000000000000045
:102398000000000000000000000000000000000035
:0823A800000000003254769899
:040000050800010DE1
:00000001FF
